{
  "abi": [
    {
      "inputs": [],
      "name": "multipleOutput",
      "outputs": [
        {
          "internalType": "uint64",
          "name": "",
          "type": "uint64"
        },
        {
          "internalType": "uint64",
          "name": "",
          "type": "uint64"
        }
      ],
      "stateMutability": "pure",
      "type": "function"
    },
    {
      "inputs": [],
      "name": "singleOutput",
      "outputs": [
        {
          "internalType": "uint64",
          "name": "",
          "type": "uint64"
        }
      ],
      "stateMutability": "pure",
      "type": "function"
    }
  ],
  "bytecode": {
    "object": "0x6080604052348015600f57600080fd5b5060958061001e6000396000f3fe6080604052348015600f57600080fd5b506004361060325760003560e01c80639cb1637c146037578063d58df8a814604b575b600080fd5b604051600181526020015b60405180910390f35b60408051600181526002602082015201604256fea26469706673582212204afa6cf15b9a04441336e24a7eef599b219ba06c41dc87069e1b6c265f33dda864736f6c63430008130033",
    "linkReferences": {}
  },
  "methodIdentifiers": {
    "multipleOutput()": "d58df8a8",
    "singleOutput()": "9cb1637c"
  },
  "id": 0
}