{
  "abi": [
    {
      "inputs": [
        {
          "internalType": "address",
          "name": "_addr",
          "type": "address"
        },
        {
          "internalType": "uint256",
          "name": "_number",
          "type": "uint256"
        },
        {
          "internalType": "bytes32",
          "name": "_bytesI",
          "type": "bytes32"
        },
        {
          "components": [
            {
              "internalType": "uint256",
              "name": "number",
              "type": "uint256"
            }
          ],
          "internalType": "struct Inputs.Config",
          "name": "_config",
          "type": "tuple"
        }
      ],
      "stateMutability": "nonpayable",
      "type": "constructor"
    },
    {
      "inputs": [],
      "name": "addr",
      "outputs": [
        {
          "internalType": "address",
          "name": "",
          "type": "address"
        }
      ],
      "stateMutability": "view",
      "type": "function"
    }
  ],
  "bytecode": {
    "object": "0x608060405234801561001057600080fd5b5060405161019838038061019883398101604081905261002f91610060565b600080546001600160a01b0319166001600160a01b03959095169490941790935560035590516001556002556100f9565b600080600080848603608081121561007757600080fd5b85516001600160a01b038116811461008e57600080fd5b60208781015160408901519297509550909350605f19820112156100b157600080fd5b50604051602081016001600160401b03811182821017156100e257634e487b7160e01b600052604160045260246000fd5b604052606095909501518552509194909350909190565b6091806101076000396000f3fe6080604052348015600f57600080fd5b506004361060285760003560e01c8063767800de14602d575b600080fd5b600054603f906001600160a01b031681565b6040516001600160a01b03909116815260200160405180910390f3fea2646970667358221220328b8d5a243074e47f5e52d219d27feadfb5f033e0796ad25bdb0ec1b8aaa71464736f6c63430008130033",
    "linkReferences": {}
  },
  "methodIdentifiers": {
    "addr()": "767800de"
  },
  "id": 0
}