{
  "abi": [
    {
      "inputs": [
        {
          "internalType": "address",
          "name": "_addr",
          "type": "address"
        },
        {
          "internalType": "uint256",
          "name": "_number",
          "type": "uint256"
        },
        {
          "internalType": "bytes32",
          "name": "_bytesI",
          "type": "bytes32"
        },
        {
          "components": [
            {
              "internalType": "uint256",
              "name": "number",
              "type": "uint256"
            }
          ],
          "internalType": "struct Inputs.Config",
          "name": "_config",
          "type": "tuple"
        }
      ],
      "stateMutability": "nonpayable",
      "type": "constructor"
    },
    {
      "inputs": [],
      "name": "addr",
      "outputs": [
        {
          "internalType": "address",
          "name": "",
          "type": "address"
        }
      ],
      "stateMutability": "view",
      "type": "function"
    },
    {
      "inputs": [
        {
          "internalType": "address",
          "name": "_addr",
          "type": "address"
        },
        {
          "internalType": "uint256",
          "name": "_number",
          "type": "uint256"
        },
        {
          "internalType": "bytes32",
          "name": "_bytesI",
          "type": "bytes32"
        },
        {
          "components": [
            {
              "internalType": "uint256",
              "name": "number",
              "type": "uint256"
            }
          ],
          "internalType": "struct Inputs.Config",
          "name": "_config",
          "type": "tuple"
        }
      ],
      "name": "applyFunc",
      "outputs": [],
      "stateMutability": "payable",
      "type": "function"
    }
  ],
  "bytecode": {
    "object": "0x608060405234801561001057600080fd5b5060405161027e38038061027e83398101604081905261002f91610060565b600080546001600160a01b0319166001600160a01b03959095169490941790935560035590516001556002556100f9565b600080600080848603608081121561007757600080fd5b85516001600160a01b038116811461008e57600080fd5b60208781015160408901519297509550909350605f19820112156100b157600080fd5b50604051602081016001600160401b03811182821017156100e257634e487b7160e01b600052604160045260246000fd5b604052606095909501518552509194909350909190565b610176806101086000396000f3fe6080604052600436106100295760003560e01c8063767800de1461002e578063fe3e8d731461006a575b600080fd5b34801561003a57600080fd5b5060005461004e906001600160a01b031681565b6040516001600160a01b03909116815260200160405180910390f35b6100a66100783660046100a8565b600080546001600160a01b0319166001600160a01b0395909516949094179093556003559051600155600255565b005b60008060008084860360808112156100bf57600080fd5b85356001600160a01b03811681146100d657600080fd5b9450602086810135945060408701359350605f19820112156100f757600080fd5b506040516020810181811067ffffffffffffffff8211171561012957634e487b7160e01b600052604160045260246000fd5b60405260609590950135855250919490935090919056fea26469706673582212205d35d5765b56d445f5237cf485eb83ddb0aba0496d601ef5ca6315357a3eae0b64736f6c63430008130033",
    "linkReferences": {}
  },
  "methodIdentifiers": {
    "addr()": "767800de",
    "applyFunc(address,uint256,bytes32,(uint256))": "fe3e8d73"
  },
  "id": 0
}