{
  "abi": [
    {
      "anonymous": false,
      "inputs": [
        {
          "indexed": false,
          "internalType": "uint64",
          "name": "num",
          "type": "uint64"
        }
      ],
      "name": "One",
      "type": "event"
    },
    {
      "inputs": [],
      "name": "applyFunc",
      "outputs": [],
      "stateMutability": "nonpayable",
      "type": "function"
    }
  ],
  "bytecode": {
    "object": "0x6080604052348015600f57600080fd5b5060a18061001e6000396000f3fe6080604052348015600f57600080fd5b506004361060285760003560e01c8063724ae5fd14602d575b600080fd5b60336035565b005b604051600181527fd5574cbede10eb2cd6a49686f59247a18c7a0da223f457c21978ad930a6440369060200160405180910390a156fea26469706673582212208acdc9a5c7f1508c6938461cbaaf67f3cc6fe16d0b320238f1a0388edf8b7a3f64736f6c63430008130033",
    "linkReferences": {}
  },
  "methodIdentifiers": {
    "applyFunc()": "724ae5fd"
  },
  "id": 0
}