{
  "_format": "hh-sol-artifact-1",
  "contractName": "Inputs",
  "sourceName": "src/Inputs.sol",
  "abi": [
    {
      "inputs": [
        {
          "internalType": "address",
          "name": "_addr",
          "type": "address"
        },
        {
          "internalType": "uint256",
          "name": "_number",
          "type": "uint256"
        },
        {
          "internalType": "bytes32",
          "name": "_bytesI",
          "type": "bytes32"
        },
        {
          "components": [
            {
              "internalType": "uint256",
              "name": "number",
              "type": "uint256"
            }
          ],
          "internalType": "struct Inputs.Config",
          "name": "_config",
          "type": "tuple"
        }
      ],
      "stateMutability": "nonpayable",
      "type": "constructor"
    },
    {
      "inputs": [],
      "name": "addr",
      "outputs": [
        {
          "internalType": "address",
          "name": "",
          "type": "address"
        }
      ],
      "stateMutability": "view",
      "type": "function"
    }
  ],
  "bytecode": "0x608060405234801561001057600080fd5b506040516103ab3803806103ab8339818101604052810190610032919061023f565b836000806101000a81548173ffffffffffffffffffffffffffffffffffffffff021916908373ffffffffffffffffffffffffffffffffffffffff160217905550816003819055508060016000820151816000015590505082600281905550505050506102a6565b6000604051905090565b600080fd5b600073ffffffffffffffffffffffffffffffffffffffff82169050919050565b60006100d3826100a8565b9050919050565b6100e3816100c8565b81146100ee57600080fd5b50565b600081519050610100816100da565b92915050565b6000819050919050565b61011981610106565b811461012457600080fd5b50565b60008151905061013681610110565b92915050565b6000819050919050565b61014f8161013c565b811461015a57600080fd5b50565b60008151905061016c81610146565b92915050565b600080fd5b6000601f19601f8301169050919050565b7f4e487b7100000000000000000000000000000000000000000000000000000000600052604160045260246000fd5b6101c082610177565b810181811067ffffffffffffffff821117156101df576101de610188565b5b80604052505050565b60006101f2610099565b90506101fe82826101b7565b919050565b60006020828403121561021957610218610172565b5b61022360206101e8565b9050600061023384828501610127565b60008301525092915050565b60008060008060808587031215610259576102586100a3565b5b6000610267878288016100f1565b945050602061027887828801610127565b93505060406102898782880161015d565b925050606061029a87828801610203565b91505092959194509250565b60f7806102b46000396000f3fe6080604052348015600f57600080fd5b506004361060285760003560e01c8063767800de14602d575b600080fd5b60336047565b604051603e919060a8565b60405180910390f35b60008054906101000a900473ffffffffffffffffffffffffffffffffffffffff1681565b600073ffffffffffffffffffffffffffffffffffffffff82169050919050565b6000609482606b565b9050919050565b60a281608b565b82525050565b600060208201905060bb6000830184609b565b9291505056fea2646970667358221220767047352d47748afd2d39076cd7b24bd4e78ace30e7ee9ed1e4d4a3969ff00364736f6c63430008120033",
  "linkReferences": {},
  "deployedLinkReferences": {}
}